:020000040800F2
:100000002804002089070008D5060008D706000844
:10001000D9060008DB060008DD0600080000000025
:10002000000000000000000000000000DF060008E3
:10003000E106000800000000E3060008E5060008ED
:10004000A5070008A9070008AD070008B1070008C8
:10005000B5070008B9070008E7060008BD07000853
:10006000C1070008C5070008C9070008CD07000838
:10007000D1070008D5070008D9070008DD070008E8
:10008000E1070008E5070008E9070008ED07000898
:10009000F1070008F5070008F9070008FD07000848
:1000A0000108000805080008090800080D080008F4
:1000B0001108000815080008190800081D080008A4
:1000C0002108000825080008290800082D08000854
:1000D0003108000835080008390800083D08000804
:1000E0004108000845080008490800084D080008B4
:1000F00051080008000000005508000859080008D1
:100100005D08000861080008650800086908000823
:100110006D080008710800087508000879080008D3
:100120007D08000880B55248006850F4807050493E
:10013000086050480168504801404E4801604C48F2
:1001400001684E4801404A4801604948006830F45F
:100150008020474908604748006830F47D004549E1
:10016000086000204649086000F005F85FF0006074
:100170004449086001BD82B0002001900020009039
:100180003B48006850F480303949086038480068BE
:1001900010F4003000900198401C01900098002855
:1001A00003D10198B0F5A04FF0D131480068800329
:1001B00002D50120009001E0002000900098012865
:1001C00053D13148006850F004002F4908602E4890
:1001D000006850F002002C4908602B48006850F07D
:1001E0000100294908602948006850F080502749DB
:1001F00008604FF400602649086026480068C00681
:10020000FBD41C4800681B4908601A48006819495B
:10021000086018480068174908601648006830F4FC
:100220007D00144908601348006850F4110011491A
:1002300008600F48006850F080700D4908600C4855
:1002400000688001FBD50B480068800880000949E0
:1002500008600848006850F0030006490860054837
:10026000006810F00C000C28F9D102B070470000B3
:1002700000380240083802400CC0FF88FEFFFEEE46
:100280000C38024008ED00E0003C024024380240F7
:10029000007000400470004080B50121022000F091
:1002A00089F83D4800F011F906203B49086001201B
:1002B0003949087100203849887101203649C871D0
:1002C0000320354948713449344800F097F83448E0
:1002D00000F0FBF801203249086000203049087125
:1002E00000202D49887101202D49C8712C492B48C7
:1002F00000F084F800F017F80121284800F0F1F828
:100300000028F9D10221254800F0F9F800F001F8A1
:10031000F2E70020010089B24FF6FF72914201D04E
:10032000401CF7E7704780B50121012000F042F83A
:1003300000201C49087100201A49C8710120194980
:1003400008601849184800F059F80121012000F010
:1003500041F80021002000F0D7F80120134908607F
:100360000020124908710C201049487101200F49E2
:1003700088710E4800F0F6F806200D4908700F202D
:100380000B4948700F200A49887001200849C8703D
:10039000074800F043F901BD0000002000040240BE
:1003A000080000201000002000000240180000207B
:1003B000200000200A00D2B2002A05D00D4A12689F
:1003C00002430C4B1A6004E00A4A12688243094B4C
:1003D0001A6070470A00D2B2002A05D0064A126895
:1003E0000243054B1A6004E0034A12688243024B41
:1003F0001A6070471C38024020380240F0B40022D6
:100400000023002400270025102D5CD20122AA40E1
:1004100013000A681A4014009C4252D106685FF02B
:10042000030C2A00D2B252001CFA02FC36EA0C0677
:1004300091F804C02A00D2B252001CFA02FC5CEA15
:10044000060606600A79012A02D00A79022A24D116
:1004500087685FF0030C2A00D2B252001CFA02FC3B
:1004600037EA0C0791F805C02A00D2B252001CFAF4
:1004700002FC5CEA0707876082885FF0010C1CFAC7
:1004800005FC32EA0C0291F806C01CFA05FC1FFAC2
:100490008CFC5CEA020216008680C2685FF0030CE6
:1004A0002F00FFB27F001CFA07F732EA070791F826
:1004B00007C02A00D2B252001CFA02FC5CEA07070D
:1004C000C7606D1CA0E7F0BC70474FF6FF7101607C
:1004D0000021017100214171002181710021C17150
:1004E000704710B402000023108A0C00A4B220420E
:1004F00001D0012000E00020C0B210BC7047828A09
:100500004A4082827047000070B400230F2211F02D
:100510000304E4B2A40012FA04F4114A0D00EDB28F
:10052000AD1052F82520A2430D4D0E00F6B2B610C4
:1005300045F826200A4A0D00EDB2AD1052F82550BC
:100540000600F6B211F00302D2B292009640354393
:10055000034A0E00F6B2B61042F8265070BC70473F
:10056000080001400023284A8179002936D0264915
:100570000B6801688B4324490B6024490B680168B0
:100580008B4322490B6001798A18136801680B4379
:1005900013601F490B6801688B431D490B601D499F
:1005A0000B6801688B431B490B60417910290CD102
:1005B00017490B6801680B4315490B6015490B6817
:1005C00001680B4313490B600EE00F4B4179CB18C8
:1005D0001A00136801680B43136005E001798A185B
:1005E000136801688B4313607047010000220A48BA
:1005F0000068084201D0012000E00020C0B270472E
:1006000005490860704700000004014004040140EF
:10061000080401400C04014014040140F0B400221D
:1006200000230F24C178002920D01649096811F44D
:10063000E061D1F5E061090AD1F104052B00E4B2D3
:100640000C4145789D408678264035432D012A008F
:100650000D4D0678AA550125067816F01F06B540FF
:100660000A4E07787F1146F8275009E001210578E6
:1006700015F01F05A940064D0678761145F826109D
:10068000F0BC70470CED00E000E400E000E100E0A9
:1006900080E100E019E050F8042BD30744BFA9F132
:1006A00001039A18091F0023042942F8043BF9D2D8
:1006B0005FEA817C134604D54FF0000CA2F800C01D
:1006C0009B1CC90744BF0021197050F8041B002966
:1006D000E1D170477047FEE7FEE7FEE7FEE77047AF
:1006E00070477047704780B50120FFF77EFF0028F4
:1006F00002D00120FFF784FF04210248FFF7FFFE2C
:1007000001BD00000004024010B5074979441831CA
:10071000064C7C44163404E00A68081D11448847DE
:100720000146A142F8D110BD0800000014000000ED
:1007300065FFFFFF24000000000000200000000013
:1007400000F00DF8002801D0FFF7DEFFAFF30080C6
:100750000020AFF30080FFF79FFD00F002F80120BA
:10076000704700F001B800000746384600F002F874
:10077000FBE7000080B5AFF30080024A11001820AB
:10078000ABBEFBE726000200014880470148004756
:100790002501000899070008AFF30080AFF300803F
:1007A000FFF7CEFFFFF7FEBFFFF7FEBFFFF7FEBF6D
:1007B000FFF7FEBFFFF7FEBFFFF7FEBFFFF7FEBF6D
:1007C000FFF7FEBFFFF7FEBFFFF7FEBFFFF7FEBF5D
:1007D000FFF7FEBFFFF7FEBFFFF7FEBFFFF7FEBF4D
:1007E000FFF7FEBFFFF7FEBFFFF7FEBFFFF7FEBF3D
:1007F000FFF7FEBFFFF7FEBFFFF7FEBFFFF7FEBF2D
:10080000FFF7FEBFFFF7FEBFFFF7FEBFFFF7FEBF1C
:10081000FFF7FEBFFFF7FEBFFFF7FEBFFFF7FEBF0C
:10082000FFF7FEBFFFF7FEBFFFF7FEBFFFF7FEBFFC
:10083000FFF7FEBFFFF7FEBFFFF7FEBFFFF7FEBFEC
:10084000FFF7FEBFFFF7FEBFFFF7FEBFFFF7FEBFDC
:10085000FFF7FEBFFFF7FEBFFFF7FEBFFFF7FEBFCC
:10086000FFF7FEBFFFF7FEBFFFF7FEBFFFF7FEBFBC
:10087000FFF7FEBFFFF7FEBFFFF7FEBFFFF7FEBFAC
:04000005080007994F
:00000001FF
