:020000040800F2
:10000000280400209D050008ED040008EF04000806
:10001000F1040008F3040008F504000800000000E3
:10002000000000000000000000000000F7040008CD
:10003000F904000800000000FB040008FD040008AB
:10004000B9050008BD050008C1050008C505000880
:10005000C9050008CD050008FF040008D105000807
:10006000D5050008D9050008DD050008E1050008F0
:10007000E5050008E9050008ED050008F1050008A0
:10008000F5050008F9050008FD050008010600084F
:1000900005060008090600080D06000811060008FC
:1000A00015060008190600081D06000821060008AC
:1000B00025060008290600082D060008310600085C
:1000C00035060008390600083D060008410600080C
:1000D00045060008490600084D06000851060008BC
:1000E00055060008590600085D060008610600086C
:1000F00065060008394982B0086840F480700860DD
:100100008A68374802408A600B68364803400B60B3
:10011000086820F48020086000208A6822F47D02AC
:100120008A60C86000900190086840F480300860E0
:100130000A6802F4003201920098401C0090019875
:1001400018B9009AB2F5A04FF2D10868400C00F03F
:10015000010001900198012839D12348026842F03A
:1001600004020260036843F002030360026842F085
:10017000010202604FF40062486A40F08050486219
:100180001A4802604268D306FCD488688860886890
:10019000886088688860886820F47D008860886846
:1001A00040F4110088600A6842F080720A600868B2
:1001B0008201FCD58868800880008860886840F0EB
:1001C00003008860886800F00C000C28FAD14FF01A
:1001D00000610748016002B070470000003802402B
:1001E0000CC0FF88FEFFFEEE003C024000700040A5
:1001F00008ED00E038B50121022000F073F8354C1D
:10020000354D204600F0B3F806202060214601203D
:1002100020710020A0710120E07103206071284648
:1002200000F076F804F1080000F0A1F80120A060C9
:1002300004F1080100202073A0710120E07328461A
:1002400000F066F800F015F80121284600F098F853
:100250000028F9D10221284600F099F800F001F8B1
:10026000F2E700204FF6FF71401C82B28A42FBD1B8
:10027000704710B50121012000F034F8174C00211F
:1002800001202171E17120602146154800F040F8FD
:100290000121012000F02FF80021002000F07CF85F
:1002A0000120A060002020730C2060730120A07347
:1002B00004F1080000F084F8062020740F20607418
:1002C000A0740120E07404F11000BDE8104000F0BB
:1002D000B9B8000014000020000402400000002013
:1002E00000000240084A0029116814BF084321EAAF
:1002F000000010607047054A0029116814BF0843C8
:1003000021EA0000106070471C380240203802408B
:10031000F8B5002201250B6895402B40AB4222D155
:10032000530003249C4006680F79E44326409F4015
:100330003E4306600E79012E18BF022E0CD186684E
:100340004F7926409F403E438660868826EA050511
:100350008E79964035438580C5682C40CD7905FA65
:1003600003F32343C360521C102AD3D3F1BD4FF6CD
:10037000FF7101600021017141718171C17170478C
:1003800002460020128A0A4218BF01207047828A62
:10039000514081827047000030B5084B8A0021F03F
:1003A000030102F00C025C580F259540AC435C50F1
:1003B00090405D582843585030BD0000080001406F
:1003C00030B5046881791D4AE44321B315682C4097
:1003D0001460546801688C435460047914192568CA
:1003E00001680D432560946801688C439460D4686B
:1003F00001688C43D46041790468102907D1916861
:100400000C439460D16800680143D16030BD52183C
:100410001068044303E00079121810680440146067
:1004200030BD074A1368014600200B4218BF012067
:10043000704700BF02490860704700000004014097
:100440001404014070B50378C1781C460122D9B16B
:10045000124B1B68457803F4E063C3F5E0631B0AA5
:10046000C3F104018D4081780F26DE4031400D43F9
:100470000B4B2D011D5501780A4B01F01F008240E6
:10048000490943F8212070BD03F01F03064802FA12
:1004900003F3640940F8243070BD00000CED00E067
:1004A00000E400E000E100E080E100E019E050F845
:1004B000042BD30744BFA9F101039A18091F002395
:1004C000042942F8043BF9D25FEA817C134604D543
:1004D0004FF0000CA2F800C09B1CC90744BF0021CC
:1004E000197050F8041B0029E1D170477047FEE7EE
:1004F000FEE7FEE7FEE7704770477047704780B53C
:100500000120FFF78EFF10B10120FFF792FFBDE839
:10051000044004210148FFF73ABF000000040240F4
:1005200010B5074979441831064C7C44163404E070
:100530000A68081D114488470146A142F8D110BD40
:10054000080000001400000065FFFFFF2400000009
:1005500000000020000000000120C046002801D05B
:10056000FFF7DEFFAFF300800020AFF30080FFF75E
:1005700041FE00F000F800F001B8000007463846E0
:1005800000F002F8FBE7000080B5AFF30080024AFC
:1005900011001820ABBEFBE726000200014880478F
:1005A00001480047F5000008AD050008AFF30080E2
:1005B000AFF30080FFF7D0FFFFF7FEBFFFF7FEBFEE
:1005C000FFF7FEBFFFF7FEBFFFF7FEBFFFF7FEBF5F
:1005D000FFF7FEBFFFF7FEBFFFF7FEBFFFF7FEBF4F
:1005E000FFF7FEBFFFF7FEBFFFF7FEBFFFF7FEBF3F
:1005F000FFF7FEBFFFF7FEBFFFF7FEBFFFF7FEBF2F
:10060000FFF7FEBFFFF7FEBFFFF7FEBFFFF7FEBF1E
:10061000FFF7FEBFFFF7FEBFFFF7FEBFFFF7FEBF0E
:10062000FFF7FEBFFFF7FEBFFFF7FEBFFFF7FEBFFE
:10063000FFF7FEBFFFF7FEBFFFF7FEBFFFF7FEBFEE
:10064000FFF7FEBFFFF7FEBFFFF7FEBFFFF7FEBFDE
:10065000FFF7FEBFFFF7FEBFFFF7FEBFFFF7FEBFCE
:08066000FFF7FEBFFFF7FEBF2C
:04000005080005AD3D
:00000001FF
