:020000040800F2
:1000000028040020ED050008390500083B0500081C
:100010003D0500083F0500084105000800000000FC
:100020000000000000000000000000004305000880
:1000300045050008000000004705000849050008C4
:100040000906000809060008090600080906000854
:1000500009060008090600084B0500080906000803
:100060000906000809060008090600080906000834
:100070000906000809060008090600080906000824
:100080000906000809060008090600080906000814
:100090000906000809060008090600080906000804
:1000A00009060008090600080906000809060008F4
:1000B00009060008090600080906000809060008E4
:1000C00009060008090600080906000809060008D4
:1000D00009060008090600080906000809060008C4
:1000E00009060008090600080906000809060008B4
:1000F00009060008000000000906000809060008BB
:100100000906000809060008090600080906000893
:100110000906000809060008090600080906000883
:100120000906000830B581B00121022000F07CF8FA
:10013000394C3A4D204600F0BDF80620206021469B
:10014000012020710020A0710120E0710320607166
:10015000284600F07FF804F1080000F0ABF8012019
:10016000A06004F1080100202073A0710120E07359
:100170004FF6FF74284600F06DF800F01CF80121DE
:10018000284600F0A0F80028F9D10221284600F006
:10019000A1F80020401C81B2A1421EBF401C81B2C8
:1001A000A1421EBF401C81B2A142E8D0401C81B2D6
:1001B000A142EFD1E3E710B50121012000F034F8AE
:1001C000174C002101202171E17120602146154862
:1001D00000F040F80121012000F02FF8002100205C
:1001E00000F07CF80120A060002020730C206073D8
:1001F0000120A07304F1080000F084F806202074A8
:100200000F206074A0740120E07404F11000BDE8B8
:10021000104000F0B9B800001400002000040240B3
:100220000000002000000240084A0029116814BFA5
:10023000084321EA000010607047054A0029116850
:1002400014BF084321EA0000106070471C380240C8
:1002500020380240F0B40022002301250C689540AC
:100260002C40AC4220D103249C4006680F79E44323
:1002700026409F403E4306600E79012E18BF022E95
:100280000CD186684F7926409F403E438660868821
:1002900026EA05058E79964035438580C5682C4051
:1002A000CD799D402C43C460521C9B1C102AD4D392
:1002B000F0BC70474FF6FF71016000210171417180
:1002C0008171C171704702460020128A0A4218BF2C
:1002D00001207047828A51408182704730B4084BB8
:1002E0008A0021F0030102F00C025C580F259540B2
:1002F000AC435C5090405D582843585030BC704728
:100300000800014030B4046881791D4AE44329B3F0
:1003100015682C401460546801688C43546004795B
:100320001419256801680D432560946801688C43A1
:100330009460D46801688C43D460417904681029C2
:1003400008D191680C439460D16800680143D16082
:1003500030BC704752181068044303E0007912184B
:1003600010680440146030BC7047064A13680146A8
:1003700000200B4218BF01207047024908607047F7
:10038000000401401404014070B40378C1781C4695
:100390000122E1B1134B1B68457803F4E063C3F518
:1003A000E0631B0AC3F104018D4081780F26DE4013
:1003B00031400D430C4B2D011D5501780B4B01F0C5
:1003C0001F008240490943F8212070BC704703F0A8
:1003D0001F03074802FA03F3640940F8243070BC95
:1003E000704700000CED00E000E400E000E100E0F8
:1003F00080E100E03B4982B0086840F4807008600A
:100400008A68394802408A600B68384803400B60AC
:10041000086820F48020086000208A6822F47D02A9
:100420008A60C86000900190086840F480300860DD
:100430000A6802F4003201920098401C0090019872
:1004400018B9009AB2F5A04FF2D10868400C00F03C
:1004500001000190019801283ED1D1F8002442F01A
:100460000402C1F800244FF40062D1F8000440F007
:100470000200C1F80004D1F8000440F00100C1F806
:100480000004486A40F0805048621948026042689F
:10049000D306FCD48868886088688860886888602B
:1004A000886820F47D008860886840F411008860C6
:1004B0000A6842F080720A6008688201FCD5886888
:1004C000800880008860886840F003008860886841
:1004D00000F00C000C28FAD14FF0006105480160D3
:1004E00002B07047003802400CC0FF88FEFFFEEEED
:1004F0000070004008ED00E019E050F8042BD3072D
:1005000044BFA9F101039A18091F0023042942F8E6
:10051000043BF9D25FEA817C134604D54FF0000C0E
:10052000A2F800C09B1CC90744BF0021197050F8F5
:10053000041B0029E1D170477047FEE7FEE7FEE7A4
:10054000FEE7704770477047704700B581B00120E3
:10055000FFF70BFF10B10120FFF70FFF01B05DF8AF
:1005600004EB04210148FFF7B5BE0000000402407F
:1005700010B5074979441831064C7C44163404E020
:100580000A68081D114488470146A142F8D110BDF0
:10059000080000001400000061FFFFFF24000000BD
:1005A00000000020000000000120C046002801D00B
:1005B000FFF7DEFFAFF300800020AFF30080FFF70E
:1005C000B1FD00F000F800F001B800000746384621
:1005D00000F002F8FBE7000080B5AFF30080024AAC
:1005E00011001820ABBEFBE726000200014880473F
:1005F00001480047F5030008FD050008AFF300803F
:0C060000AFF30080FFF7D0FFFFF7FEBF54
:04000005080005FDED
:00000001FF
